:020000040800F2
:10000000E80400205D140008391400083B140008BF
:100010003D1400083F1400084114000800000000CF
:100020000000000000000000000000004314000871
:100030004514000800000000471400084914000897
:100040009114000895140008991400089D140008E4
:10005000A1140008A5140008A9140008AD14000894
:10006000B1140008B5140008B9140008BD14000844
:10007000C1140008C5140008C9140008CD140008F4
:10008000D1140008D5140008D9140008DD140008A4
:10009000E1140008E5140008E9140008ED14000854
:1000A000F1140008F5140008F9140008FD14000804
:1000B0000115000805150008091500080D150008B0
:1000C0001115000815150008191500081D15000860
:1000D0002115000825150008291500082D15000810
:1000E0003115000835150008391500083D150008C0
:1000F0004115000845150008491500084D15000870
:100100005115000855150008591500085D1500081F
:100110006115000865150008691500086D150008CF
:100120007115000875150008791500087D1500087F
:100130008115000885150008891500088D1500082F
:100140009115000895150008991500089D150008DF
:10015000A1150008A5150008A9150008AD1500088F
:10016000B1150008B5150008B9150008BD1500083F
:10017000C1150008C5150008C915000800000000D9
:10018000CD150008D1150008D5150008D9150008AF
:10019000DD150008E1150008E5150008E91500085F
:1001A000ED150008F1150008F51500082DE9F843D4
:1001B000040016D02078DFF80063C10713D5B068BB
:1001C00000F00C00042807D0B06800F00C000828EC
:1001D0003DD1706841023AD53068810303D560682B
:1001E000002800F063812078B44F810719D5B068EA
:1001F00010F00C0F07D0B06800F00C0008285BD19D
:100200007068410258D43068810703D5E06801283E
:1002100040F04C813168206921F0F80141EAC001C9
:1002200031602178080779D56069A549002868D030
:1002300001220A6000F048F90546706F81076DD40D
:1002400000F042F9401B0228F7D9032031E1606831
:10025000B0F5803F04D1306840F48030306011E068
:10026000B0F5A02F306806D140F4802030603168AE
:1002700041F4803105E020F480303060316821F4B1
:1002800080213160606858B100F01EF90546306881
:100290008103A8D400F018F9401B6528F7D3D4E7F0
:1002A00000F012F90546306881039CD500F00CF986
:1002B000401B6528F7D3C8E7E068A8B10121396081
:1002C00000F002F905463068810705D400F0FCF81B
:1002D000401B0228F7D9B8E73068216920F0F80000
:1002E00040EAC10030609CE7386000F0EDF8054658
:1002F0003168880795D500F0E7F8401B0228F7D948
:10030000A3E7086000F0E0F80546706F810705D5A7
:1003100000F0DAF8401B0228F7D996E72078410769
:100320005FD5306C0025C1000AD400950125316CE1
:1003300041F080513164306C00F0805000900098A2
:10034000DFF88081D8F80000C10513D4D8F8000088
:1003500040F48070C8F8000000F0B6F88146D8F884
:100360000000C10506D400F0AFF8A0EB0900022898
:10037000F5D96AE7A068012805D00528306F06D1B5
:1003800040F004003067306F40F0010005E04008A5
:1003900040003067306F20F00400306741F2893848
:1003A000A06860B100F090F88146306F810713D4E7
:1003B00000F08AF8A0EB09004045F6D345E700F0CD
:1003C00083F88146306F810706D500F07DF8A0EBF9
:1003D00009004045F6D338E71DB1306C20F080505D
:1003E0003064A069002863D0B16801F00C010829CD
:1003F0003AD002282AD10020386600F065F8054678
:100400003068810105D500F05FF8401B0228F7D95C
:100410001BE7E069216A626A0843A16A490840EA69
:100420008210491E40EA0140E16A40EA01607060C2
:100430000120386600F048F804463068810137D45E
:1004400000F042F8001B0228F7D9FEE600203866CB
:1004500000F03AF804463068810129D500F034F8FC
:10046000001B0228F7D9F0E601281FD07068E26966
:1004700000F48001914202BF00F03F01226A9142E4
:1004800001BF47F6C0710140626AB1EB821F0DD116
:10049000A26A520800F44031521EB1EB024F02BF73
:1004A00000F07060E16AB0EB016F01D0012000E064
:1004B0000020BDE8F28300BF003802400000474240
:1004C000800E47420070004001484068704700BFFE
:1004D0000000002038B5040001D1012032BD00F039
:1004E00019F818B900F078F800F065F9FFE7022074
:1004F0006870211D206800F073F80120A872A870B0
:10050000E87028716871A871E87128726872687063
:10051000002032BD04F13C056878704770B506468E
:1005200006F13C0500242878012801D1022070BD85
:100530000120287002226A70DFF83C01326893685B
:10054000034093600868020018BF102830D02028AC
:1005500018BF30282CD0402826D0502819D0602829
:100560001BD0702806D0B0F5805F27D0B0F5005FB3
:1005700007D022E000F02BF83068816841F0770165
:1005800005E000F024F83068816841F48041816022
:1005900014E000F018F850210BE0CA684968306890
:1005A00000F091F8602104E000F00DF8402100E037
:1005B0000146306800F099F800E0012401206870DD
:1005C00000F00AF870BDCA68496830686CE0CB6812
:1005D0004A688968306890E0002129702046704799
:1005E000F0B5264C0568264B264E274FDFF89CC0F9
:1005F000A04218BFB0F1804F07D0604518BFB84285
:1006000003D0B04218BF98420DD14A6825F070055A
:100610001543A04218BFB0F1804F17D060451CBFF2
:10062000B842B04212D098421CBF194A90420DD035
:10063000184EB0421CBF184A904207D0174EB04225
:100640001FBF174A9042174EB04203D1CA6825F423
:10065000407515434A6925F0800515430560A042A1
:100660008D68C5620A68826212BF98420969016397
:1006700001224261F0BD00008800FFFF0000014040
:1006800000040140000C004000080040000400404D
:100690000040014000440140004801400018004073
:1006A000001C00400020004010B5036A046A640882
:1006B0006400046223F00A03846924F0F00444EA2D
:1006C0000214846123E010B5036A23F0100303626F
:1006D0008369046A23F4704343EA023324F0A004DC
:1006E000836144EA0114046210BD826822F0700242
:1006F000114341F007018160704710B5846824F40C
:100700007F442143114341EA0321816010BD194315
:10071000016210BD10B586B01022002102A800F0C1
:1007200073F800F03CF8344C4FF08040206000211A
:100730004FF0FF30E0606160A1602161A16120465F
:10074000FFF7C8FE08B100F0D3F84FF480500290D4
:1007500002A92046FFF7E2FE08B100F0C9F800F058
:1007600023F808B100F0C4F806B010BD1CB500F0C5
:1007700016F8224C2248206000214FF6FF70E060FE
:100780006160A160A1612046FFF7A4FE08B100F0FE
:10079000AFF800F009F808B100F0AAF813BD08227C
:1007A0000021684600F030B80021009101912046F8
:1007B000694600F09FB881B000681249B0F1804FDF
:1007C00009D1002000900A6842F001020A6008681E
:1007D00000F001000BE00A4A90420AD1002000908C
:1007E0000A6842F010020A60086800F010000090E9
:1007F000009801B070470000100000205800002051
:10080000001000404038024010B5044610460A4629
:100810000146204600F0B4F8204610BD80B500F037
:10082000FFF800F00EF800F015F900F0AFF9FFF74F
:1008300071FFFFF79BFF012280212A4800F0E4FAB4
:10084000FEE780B592B03022002106A8FFF7DCFF5A
:100850001422002101A8FFF7D7FF002000904FF4D9
:10086000A0232148016841F0805101600021006807
:1008700000F08050009000981C480091026842F4FB
:10088000404202600122006800F44040009006A847
:100890000099069202214FF480020C910D920421DE
:1008A000A8220E910F920221072207931091119214
:1008B000FFF77CFC08B172B6FEE70221029100222C
:1008C00003920F204FF4A051019004914FF48052F5
:1008D0000592052101A800F0B5FA08B172B6FEE74D
:1008E00013B000BD000402404038024000700040D8
:1008F00072B6FEE770B500F13C031A78012A01D107
:10090000022070BD01221A7002245C7005686E68B6
:10091000AC680A6826F0700616436E6002681148DB
:10092000824218BFB2F1804F11D0114882421CBFE1
:10093000104DAA420BD00D4882421CBF0E4DAA4258
:1009400005D0094882421CBF0C4DAA4204D1486818
:1009500024F0800404439460012159700020187031
:1009600070BD00000000014000400140000C00404C
:10097000000400400008004000040140001800404E
:1009800062F30F2262F31F42401810F0030308D0F5
:10099000C91A1FD3DB0748BF00F8012D28BF20F874
:1009A000022D130030B414461546103928BF20E933
:1009B0003C00FAD8490728BF20E90C0048BF40F89E
:1009C000042D890028BF20F8022D48BF00F8012D12
:1009D00030BC7047C91818BF00F8012DCB0728BFDD
:1009E00000F8012D704730B4002513E050F8042BB7
:1009F000D30744BFA9F101039A18091F042942F83B
:100A0000045BFAD213468C0744BF15809B1CC907B0
:100A100048BF1D7050F8041B0029E7D130BC704757
:100A200080B50B48016841F400710160026842F42E
:100A300080620260016841F480710160032000F06F
:100A4000E4FA002000F02AFB00F048FB002002BD81
:100A5000003C024070B586B0142200216846FFF7C2
:100A6000D3FE00213748384C384D059144F28106B9
:100A7000026842F0040202600022016801F00401F1
:100A800000F068F843F080030360016801F0800122
:100A900000F060F843F001030360016801F0010118
:100AA00000F058F843F002030360016801F002010E
:100AB00000F050F843F008030360016801F00801FA
:100AC0000591059905923146036843F040030360A0
:100AD000006800F0400005900598204600F094F969
:100AE00000224021284600F08FF94FF400504FF4C7
:100AF000881100900191002202926946144800F08A
:100B000097F8012101910022029203920096694612
:100B1000204600F08DF84021009101220021029131
:100B2000039101926946284600F082F88020002156
:100B30000090019102912846694600F079F806B0CC
:100B400070BD00003038024000040240001802402E
:100B5000000802400591059905920368704730B47A
:100B60000EE00268436802440830DC0744BFA9F184
:100B70000104E31852F8045B43F8045B091FF9D140
:100B800050F8041B0029ECD130BC704780B52448D4
:100B9000244901604FF4E13200230C21426083605C
:100BA000C360036141618361C36100F0B3FA18B1AE
:100BB000BDE80140FFF79CBE01BD10B586B00446FC
:100BC0001422002101A8FFF71FFE21681548814269
:100BD00024D1002214480092016941F4802101616E
:100BE000016901F480210091009900924FF4407155
:100BF000036843F0080303600222006800F0080065
:100C0000009000980948019102920021039103226B
:100C100007210591049201A900F00AF806B010BD61
:100C2000A00000200048004030380240000C024084
:100C30002DE9F84F0D460026DFF8D411DFF8D42156
:100C40000F23044601202F68B04000EA07088045C2
:100C500040F0D4804FEA460C032707FA0CF76FEAFE
:100C6000070E6F6807F00309B9F1010F1CBF07F009
:100C70000307022F12D1A768D5F80C900EEA0707D8
:100C800009FA0CF949EA0707A760676827EA000034
:100C90006F68C7F30017B74038436060B0002F7922
:100CA00007F00307032F21D0E768D5F808900EEA74
:100CB000070709FA0CF949EA0707E7602F7907F0F7
:100CC0000307022F12D1F70804EB870700F01C0975
:100CD000D7F820A003FA09FB2AEA0B0AD5F810B0CE
:100CE0000BFA09F949EA0A09C7F8209027680EEAC1
:100CF000070E2F7907F0030707FA0CF747EA0E07EC
:100D000027606F6817F4403F78D0002700974FEABC
:100D1000960C176847F48047176000F00C001768BE
:100D200007F48047009703FA00FE009F3A4F57F8F8
:100D30002C7027EA0E0E394FBC4208BF00272CD07A
:100D4000374FBC4208BF012727D0364FBC4208BFEF
:100D5000022722D0344FBC4208BF03271DD0334F97
:100D6000BC4208BF042718D0314FBC4208BF05273A
:100D700013D0304FBC4208BF06270ED02E4FBC42C6
:100D800008BF072709D02D4FBC4208BF082704D051
:100D90002B4FBC420CBF09270A2707FA00F01E4F51
:100DA00040EA0E0047F82C006FEA08000F6800EADE
:100DB000070C6F68FF0348BF48EA0C0CC1F800C07D
:100DC0004F6800EA070C6F68BF0348BF48EA0C0C85
:100DD000C1F804C08F6800EA070C6F68FF0248BFC3
:100DE00048EA0C0CC1F808C0CF6800EA070C686834
:100DF000800248BF48EA0C0CC1F80CC0761C0F2ECC
:100E00007FF620AFBDE8F18F02B909048161704718
:100E1000003C0140443802400838014000000240D4
:100E20000004024000080240000C02400010024092
:100E30000014024000180240001C02400020024042
:100E4000002402402DE9F04104000F4654D0494EE1
:100E5000306800F00F00B84202D200F073F84BD1B6
:100E60002068454D810712D5400703D5A96841F494
:100E7000E051A9602078010703D5A86840F46040DC
:100E8000A860A968A06821F0F0010143A960217859
:100E9000C80729D56068012802D129688A0305E0BE
:100EA000022818BF032803D129688A0103D423E04C
:100EB00029688A0720D5A968890840EA8100A860C6
:100EC000FFF702FB8046A868616800F00C00B0EBF9
:100ED000810F09D0FFF7F8FAA0EB080041F2893141
:100EE0008842F0D303202BE0306800F00F008742E7
:100EF00004D200F027F801D0012021E0207841073A
:100F000005D5AA68E06822F4E0520243AA6021787D
:100F1000080706D5A968206921F4604141EAC001AB
:100F2000A96000F035F8AA681449154BC2F3031202
:100F3000895CC84018601348006800F0AFF80020D2
:100F4000BDE8F0813770316801F00F01B942704798
:100F50000B480D4A006813680C49C3F3822206E06F
:100F60000748094A006813680849C3F34232895C9C
:100F7000C8407047003C024000380240E0130008BF
:100F80000C000020080000200838024088140008E7
:100F900030B5144C606800F00C00042802D008281A
:100FA00002D01DE0104830BD2268206800234102B5
:100FB00002F03F0204D525680B49C5F3881003E011
:100FC00020680A49C0F38810A1FB000100F042F933
:100FD0002168C1F30141491C4900B0FBF1F030BD6B
:100FE000024830BD0438024000127A000024F400A8
:100FF0000901020002D4244881547047234B02F0B7
:101000000F021A4402F8041C7047214B19684FF66E
:10101000FF020002114000F4E06008431D4908434C
:101020001860704770B51A4B1C68C4F30223012482
:10103000C3F10705052D2EBF0F2504FA05F56D1E1A
:101040001E1D072E34BF0023DB1E2940994004FAE1
:1010500003F3BDE870405B1E1A401143C8E710B5AA
:10106000401EB0F1807F01D3012010BD0A4C6060AA
:101070000F214FF0FF30FFF7BBFF0021A1600720D9
:101080002060002010BD000000E400E018ED00E04A
:101090000CED00E00000FA0510E000E038B50D4D61
:1010A0000D4B2A7804464FF47A711868B1FBF2F2BE
:1010B000B0FBF2F0FFF7D3FF50B9102C08D200229A
:1010C00021464FF0FF30FFF7ADFFAC60002032BD8E
:1010D000012032BD000000200C00002081B0002063
:1010E000009000220A48416841F480414160416813
:1010F00001F48041009100990092036843F080530D
:101100000360006800F080500090009801B07047C4
:101110004038024038B5040001D1012032BD00F052
:1011200017F808B900F018F800F01BF800F023F8E1
:10113000FFE7416100F001F832BD2068C16841F469
:101140000051C1600020686020216970A97070475B
:1011500004F13C0568787047002129702046FFF7AC
:101160002CBD242068702068C16821F40051C16042
:10117000204600F00AB82068016921F4904101611D
:101180002068416921F02A01704770B50446226841
:101190001169E06821F4405101431161D368274887
:1011A000A168034020690B4361690343E0690B4375
:1011B0000343D3605169A06921F440710143516137
:1011C0001F498A421CBF1F48824202D1FFF7C8FE56
:1011D00001E0FFF7BDFE62682568E4696426192115
:1011E000B4F5004FA1FB000112D1D30F520000F063
:1011F00031F800F029F8F60032366420B6FBF0F042
:10120000420002F4F87202EB011200F0070010E055
:10121000930F920000F01EF800F016F836013236F7
:101220006420B6FBF0F000F0F00202EB011200F0D7
:101230000F008018A86070BD00000000F369FFFF78
:1012400000100140001401406421B0FBF1F106FBE5
:1012500011067047D3BBD9B1B2F5803F5BD2022AE9
:101260001ED98C46B1FBF2F102FB11C31B0443EA09
:101270001043B3FBF2FC02FB1C3380B240EA034391
:10128000B3FBF2F002FB103240EA0C40002370473F
:10129000022A05D98446B0FBF2F002FB10C2704767
:1012A0004AB105D100F0010249085FEA30007047F9
:1012B00000220023704700F051B80B00020000210B
:1012C00000207047F7D3002200237047904271EB53
:1012D000030CF2D370B5B1FA81F4B3FA83F52C1B89
:1012E000A340C4F1200532FA05F63343A2405FF073
:1012F0000046E64002E05B085FEA3202841A71EBC6
:10130000030524BF204629467641F4D302000B0092
:101310003000002170BD70B5B1FA81F4B2FA82F5E7
:10132000C4F120046419B4F12006DAD3B2405FF0AE
:101330000044F440002502E052085FEA3303C61A75
:1013400071EB020E24BF3046714664416D41F3D308
:1013500002000B002000290070BD00007047000053
:1013600010B5074979441831064C7C44163404E022
:101370000A68081D114488470146A142F8D110BDF2
:101380002C0000004C0000004EF68851CEF2000107
:10139000086840F470000860BFF34F8FBFF36F8F91
:1013A0004FF00070E1EE100A704700003BF6FFFFBF
:1013B000D40000001000002000000000A3F7FFFF91
:1013C00010000000A8000000000000200000000045
:1013D0000248016841F470010160704788ED00E047
:1013E00000000000000000000102030406070809D5
:1013F00000F00DF8002801D0FFF7B2FFAFF3008036
:101400000020AFF30080FFF709FA00F002F8012096
:10141000704700F001B800000746384600F002F8B7
:10142000FBE7000080B5AFF30080024A11001820EE
:10143000ABBEFBE726000200FEE7FEE7FEE7FEE7A5
:10144000FEE770477047704700F000B802484168F7
:1014500002788A18426070470000002001488047E7
:1014600001480047D11300087D1400080100000066
:1014700000000000100000000024F400AFF3008022
:10148000FFF782FFFFF7B4FF000000000102030432
:10149000FFF7FEBFFFF7FEBFFFF7FEBFFFF7FEBF80
:1014A000FFF7FEBFFFF7FEBFFFF7FEBFFFF7FEBF70
:1014B000FFF7FEBFFFF7FEBFFFF7FEBFFFF7FEBF60
:1014C000FFF7FEBFFFF7FEBFFFF7FEBFFFF7FEBF50
:1014D000FFF7FEBFFFF7FEBFFFF7FEBFFFF7FEBF40
:1014E000FFF7FEBFFFF7FEBFFFF7FEBFFFF7FEBF30
:1014F000FFF7FEBFFFF7FEBFFFF7FEBFFFF7FEBF20
:10150000FFF7FEBFFFF7FEBFFFF7FEBFFFF7FEBF0F
:10151000FFF7FEBFFFF7FEBFFFF7FEBFFFF7FEBFFF
:10152000FFF7FEBFFFF7FEBFFFF7FEBFFFF7FEBFEF
:10153000FFF7FEBFFFF7FEBFFFF7FEBFFFF7FEBFDF
:10154000FFF7FEBFFFF7FEBFFFF7FEBFFFF7FEBFCF
:10155000FFF7FEBFFFF7FEBFFFF7FEBFFFF7FEBFBF
:10156000FFF7FEBFFFF7FEBFFFF7FEBFFFF7FEBFAF
:10157000FFF7FEBFFFF7FEBFFFF7FEBFFFF7FEBF9F
:10158000FFF7FEBFFFF7FEBFFFF7FEBFFFF7FEBF8F
:10159000FFF7FEBFFFF7FEBFFFF7FEBFFFF7FEBF7F
:1015A000FFF7FEBFFFF7FEBFFFF7FEBFFFF7FEBF6F
:1015B000FFF7FEBFFFF7FEBFFFF7FEBFFFF7FEBF5F
:1015C000FFF7FEBFFFF7FEBFFFF7FEBFFFF7FEBF4F
:1015D000FFF7FEBFFFF7FEBFFFF7FEBFFFF7FEBF3F
:1015E000FFF7FEBFFFF7FEBFFFF7FEBFFFF7FEBF2F
:0815F000FFF7FEBFFFF7FEBF8D
:040000050800147D5E
:00000001FF
